:1000000000308A0019280000223084008313000881
:10001000031918280130F800F701F70B0D28F80B29
:100020000C284A30F700F70B13281628800B0A28F3
:10003000080003081F398300623083168F00900187
:100040000F081F129F121B0880399B0007309C006D
:100050008313860183128601FF3086000430A100DD
:10006000FA30A2000420A10B302886010430A10040
:0E007000FA30A2000420A10B38282C286300CF
:04400E00303FFF3F01
:00000001FF
;PIC16F88
;CRC=B00B  CREATED="28-jun.-23 13:58"
